{
  "abi": [
    {
      "inputs": [],
      "stateMutability": "nonpayable",
      "type": "constructor"
    },
    {
      "inputs": [
        {
          "internalType": "address",
          "name": "",
          "type": "address"
        }
      ],
      "name": "balanceOf",
      "outputs": [
        {
          "internalType": "uint256",
          "name": "",
          "type": "uint256"
        }
      ],
      "stateMutability": "view",
      "type": "function"
    },
    {
      "inputs": [],
      "name": "decimals",
      "outputs": [
        {
          "internalType": "uint8",
          "name": "",
          "type": "uint8"
        }
      ],
      "stateMutability": "view",
      "type": "function"
    },
    {
      "inputs": [],
      "name": "name",
      "outputs": [
        {
          "internalType": "string",
          "name": "",
          "type": "string"
        }
      ],
      "stateMutability": "view",
      "type": "function"
    },
    {
      "inputs": [],
      "name": "symbol",
      "outputs": [
        {
          "internalType": "string",
          "name": "",
          "type": "string"
        }
      ],
      "stateMutability": "view",
      "type": "function"
    },
    {
      "inputs": [],
      "name": "totalSupply",
      "outputs": [
        {
          "internalType": "uint256",
          "name": "",
          "type": "uint256"
        }
      ],
      "stateMutability": "view",
      "type": "function"
    }
  ],
  "bytecode": "60c0604052600b60809081526a22b732b933bcaa37b5b2b760a91b60a05260009061002a9082610142565b5060408051808201909152600381526245544b60e81b60208201526001906100529082610142565b506002805460ff1916601290811790915561006e90600a6102ff565b61007b90620f4240610312565b60035534801561008a57600080fd5b5060035433600090815260046020526040902055610329565b634e487b7160e01b600052604160045260246000fd5b600181811c908216806100cd57607f821691505b6020821081036100ed57634e487b7160e01b600052602260045260246000fd5b50919050565b601f82111561013d57806000526020600020601f840160051c8101602085101561011a5750805b601f840160051c820191505b8181101561013a5760008155600101610126565b50505b505050565b81516001600160401b0381111561015b5761015b6100a3565b61016f8161016984546100b9565b846100f3565b6020601f8211600181146101a3576000831561018b5750848201515b600019600385901b1c1916600184901b17845561013a565b600084815260208120601f198516915b828110156101d357878501518255602094850194600190920191016101b3565b50848210156101f15786840151600019600387901b60f8161c191681555b50505050600190811b01905550565b634e487b7160e01b600052601160045260246000fd5b6001815b60018411156102515780850481111561023557610235610200565b600184161561024357908102905b60019390931c92800261021a565b935093915050565b600082610268575060016102f9565b81610275575060006102f9565b816001811461028b5760028114610295576102b1565b60019150506102f9565b60ff8411156102a6576102a6610200565b50506001821b6102f9565b5060208310610133831016604e8410600b84101617156102d4575081810a6102f9565b6102e16000198484610216565b80600019048211156102f5576102f5610200565b0290505b92915050565b600061030b8383610259565b9392505050565b80820281158282048414176102f9576102f9610200565b610261806103386000396000f3fe608060405234801561001057600080fd5b50600436106100575760003560e01c806306fdde031461005c57806318160ddd1461007a578063313ce5671461009157806370a08231146100b057806395d89b41146100d0575b600080fd5b6100646100d8565b6040516100719190610173565b60405180910390f35b61008360035481565b604051908152602001610071565b60025461009e9060ff1681565b60405160ff9091168152602001610071565b6100836100be3660046101c1565b60046020526000908152604090205481565b610064610166565b600080546100e5906101f1565b80601f0160208091040260200160405190810160405280929190818152602001828054610111906101f1565b801561015e5780601f106101335761010080835404028352916020019161015e565b820191906000526020600020905b81548152906001019060200180831161014157829003601f168201915b505050505081565b600180546100e5906101f1565b602081526000825180602084015260005b818110156101a15760208186018101516040868401015201610184565b506000604082850101526040601f19601f83011684010191505092915050565b6000602082840312156101d357600080fd5b81356001600160a01b03811681146101ea57600080fd5b9392505050565b600181811c9082168061020557607f821691505b60208210810361022557634e487b7160e01b600052602260045260246000fd5b5091905056fea2646970667358221220543161556baa07a0fe2b101dbb915acbfe6914177cb1e03198ec44b5002b0d1a64736f6c634300081c0033",
  "bytecodeSha1": "dc0b40b97618051b77342c688abdaba715641b44",
  "compiler": {
    "evm_version": "istanbul",
    "optimizer": {
      "enabled": true,
      "runs": 200
    },
    "version": "0.8.28+commit.7893614a"
  },
  "contractName": "EnergyToken",
  "language": "Solidity",
  "natspec": {
    "kind": "dev",
    "methods": {},
    "version": 1
  },
  "opcodes": "PUSH1 0x80 PUSH1 0x40 MSTORE CALLVALUE DUP1 ISZERO PUSH2 0x10 JUMPI PUSH1 0x0 DUP1 REVERT JUMPDEST POP PUSH1 0x4 CALLDATASIZE LT PUSH2 0x57 JUMPI PUSH1 0x0 CALLDATALOAD PUSH1 0xE0 SHR DUP1 PUSH4 0x6FDDE03 EQ PUSH2 0x5C JUMPI DUP1 PUSH4 0x18160DDD EQ PUSH2 0x7A JUMPI DUP1 PUSH4 0x313CE567 EQ PUSH2 0x91 JUMPI DUP1 PUSH4 0x70A08231 EQ PUSH2 0xB0 JUMPI DUP1 PUSH4 0x95D89B41 EQ PUSH2 0xD0 JUMPI JUMPDEST PUSH1 0x0 DUP1 REVERT JUMPDEST PUSH2 0x64 PUSH2 0xD8 JUMP JUMPDEST PUSH1 0x40 MLOAD PUSH2 0x71 SWAP2 SWAP1 PUSH2 0x173 JUMP JUMPDEST PUSH1 0x40 MLOAD DUP1 SWAP2 SUB SWAP1 RETURN JUMPDEST PUSH2 0x83 PUSH1 0x3 SLOAD DUP2 JUMP JUMPDEST PUSH1 0x40 MLOAD SWAP1 DUP2 MSTORE PUSH1 0x20 ADD PUSH2 0x71 JUMP JUMPDEST PUSH1 0x2 SLOAD PUSH2 0x9E SWAP1 PUSH1 0xFF AND DUP2 JUMP JUMPDEST PUSH1 0x40 MLOAD PUSH1 0xFF SWAP1 SWAP2 AND DUP2 MSTORE PUSH1 0x20 ADD PUSH2 0x71 JUMP JUMPDEST PUSH2 0x83 PUSH2 0xBE CALLDATASIZE PUSH1 0x4 PUSH2 0x1C1 JUMP JUMPDEST PUSH1 0x4 PUSH1 0x20 MSTORE PUSH1 0x0 SWAP1 DUP2 MSTORE PUSH1 0x40 SWAP1 KECCAK256 SLOAD DUP2 JUMP JUMPDEST PUSH2 0x64 PUSH2 0x166 JUMP JUMPDEST PUSH1 0x0 DUP1 SLOAD PUSH2 0xE5 SWAP1 PUSH2 0x1F1 JUMP JUMPDEST DUP1 PUSH1 0x1F ADD PUSH1 0x20 DUP1 SWAP2 DIV MUL PUSH1 0x20 ADD PUSH1 0x40 MLOAD SWAP1 DUP2 ADD PUSH1 0x40 MSTORE DUP1 SWAP3 SWAP2 SWAP1 DUP2 DUP2 MSTORE PUSH1 0x20 ADD DUP3 DUP1 SLOAD PUSH2 0x111 SWAP1 PUSH2 0x1F1 JUMP JUMPDEST DUP1 ISZERO PUSH2 0x15E JUMPI DUP1 PUSH1 0x1F LT PUSH2 0x133 JUMPI PUSH2 0x100 DUP1 DUP4 SLOAD DIV MUL DUP4 MSTORE SWAP2 PUSH1 0x20 ADD SWAP2 PUSH2 0x15E JUMP JUMPDEST DUP3 ADD SWAP2 SWAP1 PUSH1 0x0 MSTORE PUSH1 0x20 PUSH1 0x0 KECCAK256 SWAP1 JUMPDEST DUP2 SLOAD DUP2 MSTORE SWAP1 PUSH1 0x1 ADD SWAP1 PUSH1 0x20 ADD DUP1 DUP4 GT PUSH2 0x141 JUMPI DUP3 SWAP1 SUB PUSH1 0x1F AND DUP3 ADD SWAP2 JUMPDEST POP POP POP POP POP DUP2 JUMP JUMPDEST PUSH1 0x1 DUP1 SLOAD PUSH2 0xE5 SWAP1 PUSH2 0x1F1 JUMP JUMPDEST PUSH1 0x20 DUP2 MSTORE PUSH1 0x0 DUP3 MLOAD DUP1 PUSH1 0x20 DUP5 ADD MSTORE PUSH1 0x0 JUMPDEST DUP2 DUP2 LT ISZERO PUSH2 0x1A1 JUMPI PUSH1 0x20 DUP2 DUP7 ADD DUP2 ADD MLOAD PUSH1 0x40 DUP7 DUP5 ADD ADD MSTORE ADD PUSH2 0x184 JUMP JUMPDEST POP PUSH1 0x0 PUSH1 0x40 DUP3 DUP6 ADD ADD MSTORE PUSH1 0x40 PUSH1 0x1F NOT PUSH1 0x1F DUP4 ADD AND DUP5 ADD ADD SWAP2 POP POP SWAP3 SWAP2 POP POP JUMP JUMPDEST PUSH1 0x0 PUSH1 0x20 DUP3 DUP5 SUB SLT ISZERO PUSH2 0x1D3 JUMPI PUSH1 0x0 DUP1 REVERT JUMPDEST DUP2 CALLDATALOAD PUSH1 0x1 PUSH1 0x1 PUSH1 0xA0 SHL SUB DUP2 AND DUP2 EQ PUSH2 0x1EA JUMPI PUSH1 0x0 DUP1 REVERT JUMPDEST SWAP4 SWAP3 POP POP POP JUMP JUMPDEST PUSH1 0x1 DUP2 DUP2 SHR SWAP1 DUP3 AND DUP1 PUSH2 0x205 JUMPI PUSH1 0x7F DUP3 AND SWAP2 POP JUMPDEST PUSH1 0x20 DUP3 LT DUP2 SUB PUSH2 0x225 JUMPI PUSH4 0x4E487B71 PUSH1 0xE0 SHL PUSH1 0x0 MSTORE PUSH1 0x22 PUSH1 0x4 MSTORE PUSH1 0x24 PUSH1 0x0 REVERT JUMPDEST POP SWAP2 SWAP1 POP JUMP INVALID LOG2 PUSH5 0x6970667358 0x22 SLT KECCAK256 SLOAD BALANCE PUSH2 0x556B 0xAA SMOD LOG0 INVALID 0x2B LT SAR 0xBB SWAP2 GAS 0xCB INVALID PUSH10 0x14177CB1E03198EC44B5 STOP 0x2B 0xD BYTE PUSH5 0x736F6C6343 STOP ADDMOD SHR STOP CALLER ",
  "sha1": "a5ee639aa35b48998967599612aa39c1cf915a87",
  "source": "pragma solidity ^0.8.0;\n\ncontract EnergyToken {\n    string public name = \"EnergyToken\";\n    string public symbol = \"ETK\";\n    uint8 public decimals = 18;\n    uint256 public totalSupply = 1000000 * (10 ** uint256(decimals));\n\n    mapping(address => uint256) public balanceOf;\n\n    constructor() {\n        balanceOf[msg.sender] = totalSupply;\n    }\n}\n",
  "sourcePath": "contracts/token.sol",
  "type": "contract"
}